:100000000C94FF0C0C941C0D0C941C0D0C94BE3322
:100010000C941C0D0C941C0D0C941C0D0C941C0DBC
:100020000C941C0D0C941C0D0C94021E0C94C61DFB
:100030000C941A2C0C941C0D0C941C0D0C941C0D7F
:100040000C941C0D0C941C0D0C941C0D0C941C0D8C
:100050000C941C0D0C94DA1E0C941C0D0C941C0DAD
:100060000C941C0D0C941C0D0C941C0D0C941C0D6C
:100070000C941C0D0C941C0D0C941C0D0C941C0D5C
:100080000C941C0D0C941C0D0C941C0D0C941C0D4C
:100090000C941C0D0C941C0D0C941C0D0C941C0D3C
:1000A0000C941C0D0C941C0D0C941C0D0501098066
:1000B000A101850319012AB700150126B700950192
:1000C00075108100C0050C0901A101850419012AE0
:1000D000A002150126A002950175108100C005013E
:1000E0000906A1018506050719E029E71500250184
:1000F0009508750181020507190029EF15002501F2
:1001000095F075018102050819012905950575010C
:100110009102950175039101C00660FF0961A1017B
:100120000962150026FF00952075088102096315F4
:100130000026FF00952075089102C005010906A15F
:1001400001050719E029E7150025019508750181CA
:10015000029501750881010507190029FF15002680
:10016000FF0095067508810005081901290515008D
:100170002501950575019102950175039101C00056
:10018000000000000000000000000000000000006F
:10019000000000000000000000000000000000005F
:1001A000000000000000000000000000000000004F
:1001B00000008080000000000080404020202020BF
:1001C000101010100804020101020C3040800000E1
:1001D0000000000000F8F8F8F8000000000080803F
:1001E000000000000000000000000000000000000F
:1001F000000000000000000000000000808080007F
:1002000000000000000000000000000000000000EE
:1002100000000000000000000000000000000000DE
:1002200000000000000000000000000000000000CE
:100230001EE1000001010202818080000080800038
:1002400000000000000000008000303000000101CC
:1002500002040810204387070100B8BCBE9F5F5FFF
:100260004F4C202020201010101008080808080407
:100270000404040402020202010101010000000062
:10028000000000000000000000000000000000006E
:10029000000000000000000000000000000000005E
:1002A00000000000000000000000000000000080CE
:1002B000700C030000180605989984437C41414066
:1002C000402021221211111109080808080404080D
:1002D000081010101010110F013D7CFCFCFCFCFC00
:1002E0003C0C0000000000000000000000000000C6
:1002F00000000000000000000000000000000000FE
:1003000000000000000000000000000000000000ED
:10031000808080808040404040402020202020106D
:10032000101010100808080808040404040402034C
:1003300002020101010101010000000000000000B3
:1003400000000000000000000000000000000000AD
:100350000000000000000000000000000103030096
:10036000000000000000000000000000000000008D
:10037000000000000000000000000000000000007D
:10038000000000000000000000000000000000006D
:10039000000000000000000000000000000000005D
:1003A000000000000000000000000000000000004D
:1003B00000008080000000000080404020202020BD
:1003C000101010100804020101020C3040800000DF
:1003D000000000000000000000000000000000001D
:1003E000000000000000000000000000000000000D
:1003F000000000000000000000000000808080007D
:1004000000000000000000000000000000000000EC
:1004100000000000000000000000000000000000DC
:1004200000000000000000000000000000000000CC
:100430001EE10000010102020100000000808000B6
:10044000000000000000000080003030000001E1EA
:100450001A06093135018A7C000080808080404086
:100460004040202020201010101008080808080420
:100470000404040402020202010101010000000060
:10048000000000000000000000000000000000006C
:10049000000000000000000000000000000000005C
:1004A00000000000000000000000000000000080CC
:1004B000700C0300000000000000000000010100BB
:1004C00040A021221211111109080808080404048F
:1004D0000404040202020101010100000000000006
:1004E000000000000000000000000000000000000C
:1004F00000000000000000000000000000000000FC
:1005000000000000000000000000000000000000EB
:10051000808080808040404040402020202020106B
:10052000101010100808080808040404040402034A
:100530007A7A7979797939310202040408080888CD
:10054000888780000000000000000000000000001C
:10055000000000000000000000000000000000009B
:10056000000000000000000000000000000000008B
:10057000000000000000000000000000000000007B
:10058000000000000000000000000000000000006B
:10059000000000000000000000000000000000005B
:1005A000000000000000000000000000000000004B
:1005B00000008080000000000080404020202020BB
:1005C000101010100804020101020C3040800000DD
:1005D000000000000000000000000000000000001B
:1005E000000000000000000000000000000000000B
:1005F000000000000000000000000000808080007B
:1006000000000000000000000000000000000000EA
:1006100000000000000000000000000000000000DA
:1006200000000000000000000000000000000000CA
:100630001EE1000001010202818080000080800034
:10064000000000000000000080003030000001E1E8
:100650001A06093135018A7C000080808080404084
:10066000404020202020101010100808080808041E
:10067000040404040202020201010101000000005E
:10068000000000000000000000000000000000006A
:10069000000000000000000000000000000000005A
:1006A00000000000000000000000000000000080CA
:1006B000700C030000180605989984C37C414140E2
:1006C000402021221211111109080808080404040D
:1006D0000404040202020101010100000000000004
:1006E000000000000000000000000000000000000A
:1006F00000000000000000000000000000000000FA
:1007000000000000000000000000000000000000E9
:100710008080808080404040404020202020201069
:100720001010101008080808080404040404020348
:1007300002020101010101010000000000000000AF
:1007400000000000000000000000000000000000A9
:100750000000000000000000000000000000000099
:100760000000000000000000000000000000000089
:100770000000000000000000000000000000000079
:100780000000000000000000000000000000000069
:100790000000000000000000000000000000000059
:1007A0000000000000000000000000000000000049
:1007B00000000000000000000080404020202020B9
:1007C00010101010100808040404083040800000C5
:1007D0000000000000000000000000000000000019
:1007E0000000000000000000000000000000000009
:1007F0000000000000000000000000008080800079
:1008000000000000000000000000000000000000E8
:1008100000000000000000000000000000000000D8
:1008200000000000000000000000000000000000C8
:1008300018648202020202020100000000808000AF
:1008400000000000000000008000303000C0C1C186
:10085000C20408102040800000008080808040405A
:10086000404020202020101010100808080808041C
:10087000040404040202020201010101000000005C
:100880000000000000000000000000000000000068
:100890000000000000000000000000000000000058
:1008A000000000000000000000000000000000C088
:1008B000380403000000000000000C0C0C0D0100C7
:1008C00040A0212212111111090808080804040887
:1008D000081010101010110F01010000000000009E
:1008E0000000000000000000000000000000000008
:1008F00000000000000000000000000000000000F8
:1009000000000000000000000000000000000000E7
:100910008080808080404040404020202020201067
:100920001010101008080808080404040404020346
:100930000202010101010101020204040808080881
:100940000807000000000000000000000000000098
:100950000000000000000000000000000000000097
:100960000000000000000000000000000000000087
:100970000000000000000000000000000000000077
:100980000000000000000000000000000000000067
:100990000000000000000000000000000000000057
:1009A0000000000000000000000000000000000047
:1009B00000000000000000000080404020202020B7
:1009C00010101010100808040404083040800000C3
:1009D0000000000000000000000000000000000017
:1009E0000000000000000000000000000000000007
:1009F0000000000000000000000000008080800077
:100A000000000000000000000000000000000000E6
:100A100000000000000000000000000000000000D6
:100A200000000000000000000000000000000000C6
:100A300018648202020202020100000000808000AD
:100A400000000000000000008000303000C0C1C184
:100A5000C204081020408000000080808080404058
:100A6000404020202020101010100808080808041A
:100A7000040404040202020201010101000000005A
:100A80000000000000000000000000000000000066
:100A90000000000000000000000000000000000056
:100AA000000000000000000000000000000000C086
:100AB000380403000000000000000C0C0C0D0100C5
:100AC00040A0212212111111090808080804040885
:100AD000081010101010110F01010000000000009C
:100AE0000000000000000000000000000000000006
:100AF00000000000000000000000000000000000F6
:100B000000000000000000000000000000000000E5
:100B10008080808080404040404020202020201065
:100B20001010101008080808080404040404020344
:100B3000020201010101010102020404080808087F
:100B40000807000000000000000000000000000096
:100B50000000000000000000000000000000000095
:100B60000000000000000000000000000000000085
:100B70000000000000000000000000000000000075
:100B80000000000000000000000000000000000065
:100B90000000000000000000000000000000000055
:100BA0000000000000000000000000000000000045
:100BB0000000000000000000000080804040404035
:100BC0002020202010080402020418608000000089
:100BD0000000000000000000000000000000000015
:100BE0000000000000000000000000000000000005
:100BF0000000000000000000000000008080800075
:100C000000000000000000000000000000000000E4
:100C100000000000000000000000000000000000D4
:100C200000000000000000000000000000000000C4
:100C30003CC20101020204040201000000000000A5
:100C4000000000000000000000006060008182825F
:100C50008408102040800000000080808080404098
:100C60004040202020201010101008080808080418
:100C70000404040402020202010101010000000058
:100C80000000000000000000000000000000000064
:100C90000000000000000000000000000000000054
:100CA00000000000000000000000000000000080C4
:100CB000701906000000000000001818181B03003F
:100CC00040A02224141212120B0808080805050976
:100CD000091010101010110F010100000000000099
:100CE0000000000000000000000000000000000004
:100CF00000000000000000000000000000000000F4
:100D000000000000000000000000000000000000E3
:100D10008080808080404040404020202020201063
:100D20001010101008080808080404040404020342
:100D3000020201010101010102020404080808087D
:100D40000807000000000000000000000000000094
:100D50000000000000000000000000000000000093
:100D60000000000000000000000000000000000083
:100D70000000000000000000000000000000000073
:100D80000000000000000000000000000000000063
:100D90000000000000000000000000000000000053
:100DA0000000000000000000000000000000000043
:100DB00000008080000000000080404020202020B3
:100DC000101010100804020101020C3040800000D5
:100DD0000000000000000000000000000000000013
:100DE0000000000000000000000000000000000003
:100DF0000000000000000000000000008080800073
:100E000000000000000000000000000000000000E2
:100E100000000000000000000000000000000000D2
:100E200000000000000000000000000000000000C2
:100E30001EE10000010102020100000000808000AC
:100E400000000000000000008000303000C0C1C180
:100E5000C204081020408000000080808080404054
:100E60004040202020201010101008080808080416
:100E70000404040402020202010101010000000056
:100E80000000000000000000000000000000000062
:100E90000000000000000000000000000000000052
:100EA00000000000000000000000000000000080C2
:100EB000700C03000000000000000C0C0C0D010081
:100EC00040A0212212111111090808080804040881
:100ED000081010101010110F010100000000000098
:100EE0000000000000000000000000000000000002
:100EF00000000000000000000000000000000000F2
:100F000000000000000000000000000000000000E1
:100F10008080808080404040404020202020201061
:100F20001010101008080808080404040404020340
:100F3000020201010101010102020404080808087B
:100F40000807000000000000000000000000000092
:100F50000000000000000000000000000000000091
:100F60000000000000000000000000000000000081
:100F70000000000000000000000000000000000071
:100F80000000000000000000000000000000000061
:100F90000000000000000000000000000000000051
:100FA0000000000000000000000000000000000041
:100FB00000000000000000000080404020202020B1
:100FC00010101010080804020202043840800000CB
:100FD0000000000000000000000000000000000011
:100FE0000000000000000000000000000000000001
:100FF0000000000000000000000000008080800071
:1010000000000000000000000000000000000000E0
:1010100000000000000000000000000000000000D0
:1010200000000000000000000000000000000000C0
:101030001CE20101020202020100000000808000A7
:1010400000000000000000008000303000C0C1C17E
:10105000C204081020408000000080808080404052
:101060004040202020201010101008080808080414
:101070000404040402020202010101010000000054
:101080000000000000000000000000000000000060
:101090000000000000000000000000000000000050
:1010A00000000000000000000000000000000080C0
:1010B000700C03000000000000000C0C0C0D01007F
:1010C00040A021221211111109080808080404087F
:1010D000081010101010110F010100000000000096
:1010E0000000000000000000000000000000000000
:1010F00000000000000000000000000000000000F0
:1011000000000000000000000000000000000000DF
:10111000808080808040404040402020202020105F
:10112000101010100808080808040404040402033E
:101130000202010101010101020204040808080879
:101140000807000000000000000000000000000090
:10115000000000000000000000000000000000008F
:10116000000000000000000000000000000000007F
:10117000000000000000000000000000000000006F
:10118000000000000000000000000000000000005F
:10119000000000000000000000000000000000004F
:1011A0000000007E0F00D4FFFFFFC70000007800A2
:1011B000000000000000002A2B28000000000000B2
:1011C0000000000000000000000029000000002CCA
:1011D0001E3420212224342627252E362D37382769
:1011E0001E1F202122232425263333362E37381F75
:1011F0000405060708090A0B0C0D0E0F1011121337
:101200001415161718191A1B1C1D2F3130232D35D4
:101210000405060708090A0B0C0D0E0F1011121316
:101220001415161718191A1B1C1D2F3130354C00B8
:10123000DA0281FFD9F1DB20A4A62EAF00A0C0D333
:101240000000A1C8D30000AED580A81F408D142097
:10125000000000000000003E5B4F5B3E003E6B4F15
:101260006B3E001C3E7C3E1C00183C7E3C18001C63
:10127000577D571C001C5E7F5E1C0000183C180048
:1012800000FFE7C3E7FF00001824180000FFE7DBBA
:10129000E7FF0030483A060E00262979292600404B
:1012A0007F05050700407F05253F005A3CE73C5A73
:1012B000007F3E1C1C0800081C1C3E7F0014227F7F
:1012C0002214005F5F005F5F0006097F017F00005E
:1012D0006689956A0060606060600094A2FFA294D5
:1012E0000008047E04080010207E20100008082A50
:1012F0001C0800081C2A0808001E10101010000C02
:101300001E0C1E0C0030383E383000060E3E0E0615
:101310000000000000000000005F00000000070067
:10132000070000147F147F1400242A7F2A12002350
:101330001308646200364956205000000807030075
:1013400000001C224100000041221C00002A1C7FDA
:101350001C2A0008083E08080000807030000008C1
:10136000080808080000006060000020100804025F
:10137000003E5149453E0000427F4000007249490D
:101380004946002141494D33001814127F100027AF
:1013900045454539003C4A49493100412111090779
:1013A00000364949493600464949291E00000014C3
:1013B0000000000040340000000008142241001426
:1013C00014141414000041221408000201590906E3
:1013D000003E415D594E007C1211127C007F49494C
:1013E0004936003E41414122007F4141413E007F5C
:1013F00049494941007F09090901003E41415173B2
:10140000007F0808087F0000417F41000020404124
:101410003F01007F08142241007F40404040007F90
:10142000021C027F007F0408107F003E4141413EC4
:10143000007F09090906003E4151215E007F09191C
:1014400029460026494949320003017F0103003F34
:101450004040403F001F2040201F003F4038403F99
:1014600000631408146300030478040300615949FD
:101470004D4300007F41414100020408102000005C
:101480004141417F000402010204004040404040CD
:10149000000003070800002054547840007F2844CF
:1014A000443800384444442800384444287F0038F5
:1014B000545454180000087E0902001824241C7893
:1014C000007F080404780000447D40000020404074
:1014D0003D00007F102844000000417F4000007C58
:1014E00004780478007C08040478003844444438C4
:1014F000007C1824241800182424187C007C08047C
:1015000004080048545454240004043F4424003C7C
:101510004040207C001C2040201C003C4030403CCF
:10152000004428102844004C9090907C004464545F
:101530004C44000008364100000000770000000025
:1015400041360800000201020402003C2623263C2A
:10155000000000000000000000000000000000008B
:1015600000C0E0F0F8F81800C0F0FCFEFFFFFFFF3D
:10157000FFFFFF7E00000000000000000080C0E0D0
:10158000E0E0E0E0E0E0E0C0800000000080C0E0DB
:10159000E0E0E0E0E0E0E0C080000000E0E0C0C0AB
:1015A000E0E0E0E00000E0E0C0C0E0E0E0E0E0C05B
:1015B000800000000080C0E0E0E0E0E0E0E0E0C0AB
:1015C000800000000000000000000000000000E0BB
:1015D000F0F0F0E0ECEEF7F37020007C7C7C7E0015
:1015E0007E7E7E7F7F7F000080C0E07E5B4F5BFE63
:1015F000C00000C000DCD7DEDEDED7DC00C00000AB
:1016000000000000000000000000000000000000DA
:1016100000000000000000000000F8FCFEFFE000F9
:10162000FFFFFFFFFFFF80FFFFFFFFFFFFFFFFFF49
:101630001F0701000000000000000000FFFFFF8105
:1016400000000000000081C3C3C30000FFFFFF8152
:1016500000000000000081FFFFFF0000FFFFFF010E
:10166000000000000000FFFFFF010000000001FF7C
:10167000FFFF0000FFFFFF9D1C1C1C1C1C1C9DDFAE
:10168000DFDF000000000000000000000000000F8D
:101690001F3F7F7F7F7F7F3F1E0C001F1F1F3F006C
:1016A0003F3F3F7F7F7F00307B7F78302020307846
:1016B0007F3B0003000F7F0F0F0F7F0F0003000021
:1016C000000000000000000000000000000000001A
:1016D00000000000000000000000030F1F3F3F3F1C
:1016E0003F1F1F3F3F7F7F7F3F3F1F3F7F7F7F7FAA
:1016F0007C7878381C0F0000000000000001030710
:101700000707070707070703010000000001030799
:10171000070707070707070301000000070707007F
:10172000000000000000070707000000000000079D
:10173000070700000001030707070707070707035C
:101740000100000000000000000000000000000098
:101750000000000000000000000000000000000089
:101760000000000000000000000000000000000079
:101770000000000000000000000000000000000069
:101780000000000000000000000000000000000059
:101790000000AF00AE0A204241534520000A4C4FE2
:1017A000574552000A5241495345000A2020202043
:1017B00020000A20202043415053204C4F434B002F
:1017C0000A20202020204C4159455220000A202088
:1017D00020202020200057504D3A2000202020209B
:1017E00020200035001E001F0020002100220029BB
:1017F0000014001A000800150017002B0004001642
:1018000000070009000A00E1001D001B0006001986
:10181000000500E300E200E00021522800A80035A6
:1018200000270026002500240023002A00130012B0
:10183000000C0018001C00340033000F000E000DD7
:10184000000B00E50038003700360010001100E7FB
:1018500000E600E40022522C00000001003A003BA8
:10186000003C003D003E0035001E001F002000210E
:1018700000220001001E021F02200221022202019A
:10188000002E002D002E022F023002010001000167
:1018900000010001000100440043004200410040FB
:1018A000003F0045002700260025002400230031CA
:1018B00002270226022502240223020100310033FE
:1018C00002330030002F000100010001000100017F
:1018D0000001000100010001000100010001000100
:1018E00000490046006500000000000100E200E041
:1018F00000E1000000390001007A007B007C007DDF
:1019000000000001000100010001000100010001D0
:1019100000010001000100010001002A0001000196
:1019200000520001004B002A004C004F00510050B3
:10193000004E000100000001000000010000000155
:101940000001000100010001000100A900AA004BF4
:10195000004E002378247825782678277828782167
:1019600078227809025B00030100A0FA0904000054
:1019700001030101000921110100012244000705B2
:10198000810308000109040100020300000009218D
:101990001101000122220007058203200001070532
:1019A00003032000010904020001030000000921D3
:1019B00011010001226D00070584032000011201BE
:1019C00000020000000832FC870201000102000151
:1019D0000C0353006F0066006C00650000001A03E2
:1019E0004A006F00730065006600410064006100FA
:1019F0006D00630069006B000000040309041124FA
:101A00001FBECFEFDAE0DEBFCDBF11E0A0E0B1E056
:101A1000E2E5FCE602C005900D92A43CB107D9F7BF
:101A200025E0A4ECB1E001C01D92AA39B207E1F7AC
:101A30000E94432C0C9427360C940000FF920F93C5
:101A40001F93CF93DF9320919805309199052859E2
:101A50003340A9015E5F41305240E8F040E052E07F
:101A6000421B530B6091960370919703D901A856BE
:101A7000BC4F420F531F821B930BC1E0D0E02417D1
:101A8000350760F07093970360939603CDB7DEB788
:101A9000E5E00C94183540E052E0E4CFFC01E20FA1
:101AA000F31FF490FD91FF16A1F08D010150110973
:101AB000F801F082F90115E0F695E7951A95E1F73E
:101AC0008E0102C0000F111FEA95E2F7F801602BAA
:101AD0007F2B2F5F3F4FD3CF482F209192039091C0
:101AE000590357E0291302C080E0089530E0529F67
:101AF000F001539FF00D1124E65AFC4F81816813C9
:101B000006C08081481303C085818111EECF2F5F0D
:101B10003F4F2770E7CFE8EDF0E080818E7F808334
:101B20001092E2001092DA001092E100A0EEB0E014
:101B30008C9181608C9380818F77808319BCA7ED15
:101B4000B0E08C918E7F8C9380818F7E8083109209
:101B5000420308952091E4003091E50085E69091DC
:101B6000EC0090FF06C09091E80090FF06C080E076
:101B700008959091E80092FDFACF90914F03992338
:101B800091F0953091F09091EB0095FD10C040914F
:101B9000E4005091E5002417350709F381509A01BC
:101BA000F1F684E0089582E0089583E0089581E0ED
:101BB00008958091510387FF13C08091E80082FF50
:101BC00006C08091E8008B778093E80004C0809184
:101BD0004F038111F2CF089580914F038823D9F3E9
:101BE0008091E80080FFF8CF8091E8008E77ECCFFD
:101BF000982F9093E900242F762F50E0891731F029
:101C00007091EC002091ED005091F00021FD07C093
:101C10009F5F973071F78093E90081E008953091DC
:101C2000EB003E7F3093EB003091ED003D7F309331
:101C3000ED003091EB0031603093EB007093EC00DD
:101C40002093ED005093F0002091EE0027FDE0CFAF
:101C500080E00895B0E0A0E0E0E3FEE00C94F93409
:101C6000C8EDD0E088818F7E8883E7EDF0E0808149
:101C70008160808384E082BF81E080934203888119
:101C80008E7F888302EE10E0F80110821092DA0055
:101C900081EEC82ED12CF601108288818F7788833F
:101CA00088818068888388818F7D888319BC1092A1
:101CB0004F031092500310924E0310924D0390EE7A
:101CC000E92EF12CF70180818B7F808388818160F0
:101CD000888342E060E080E00E94F80DF601808198
:101CE0008E7F8083F801808181608083808188601D
:101CF0008083F70180818E7F8083888180618883E3
:101D0000CDB7DEB7E8E00C941535FC0180915703A0
:101D10009091580386179707A0F06115710529F473
:101D20009091E8009E779093E80090E0611571052E
:101D300051F4911108C08091E80082FF35C080E025
:101D40000895BC01F2CF80914F038823C9F18530FB
:101D5000C9F18091E80083FD31C08091E80082FDE7
:101D6000EACF8091E80080FFE1CF2091F3008091DD
:101D7000F200322F282F6115710519F02830310536
:101D800058F091E02830310509F090E02091E8000A
:101D90002E772093E800CACF81918093F1006150A3
:101DA00071092F5F3F4FE7CF80914F03882341F0A8
:101DB000853041F08091E80083FFBDCF81E0089538
:101DC00082E0089583E00895089580914403089582
:101DD00087E797E7909301088093000888E19AE0ED
:101DE0000FB6F894A895809360000FBE90936000A2
:101DF000FFCF2FB7F89460913E0370913F0380911D
:101E00004003909141032FBF08959091560199236B
:101E1000D1F090913B0397FF16C0E82FE695E69529
:101E2000E695EE31D8F4F0E0E253FE4F282F27700C
:101E300081E090E001C0880F2A95EAF780959281B1
:101E4000892382830895E6ECF1E09281891301C031
:101E50001282319691E0EC3CF907B9F70895909120
:101E600056019923C1F090913B0397FF14C0E82FCE
:101E7000E695E695E695EE31F8F4F0E0E253FE4F94
:101E8000877021E030E001C0220F8A95EAF7828155
:101E9000822B82830895A8ECB1E0EFEF90E02D91C2
:101EA000821751F0EF3F19F4211101C0E92F9F5F14
:101EB0009630A9F7EF3F09F408950E2E000CFF0BA2
:101EC000EA53FE4FE6CFA3E0B0E0E9E6FFE00C9472
:101ED000FF342091390330913A0328173907A1F0D4
:101EE00090933A0380933903E0913703F0913803DC
:101EF000309751F024E029839B838A830084F18505
:101F0000E02DCE01019609952396E2E00C941B3555
:101F1000A3E0B0E0EEE8FFE00C94FF34209135033D
:101F20003091360328173907A1F090933603809338
:101F30003503E0913703F0913803309751F023E0F7
:101F400029839B838A830084F185E02DCE0101964D
:101F500009952396E2E00C941B3580913303882386
:101F600059F0E0913703F0913803309729F0019050
:101F7000F081E02D0995089580E00895FC01680F37
:101F8000791F8FEF91E32191822728E030E087FFCE
:101F900009C0880F892721503109C9F7E617F707CB
:101FA00091F70895880FF7CF90E06623A1F08B5A40
:101FB0009E4FFC0120812F3F89F0E22FE295EF70C8
:101FC000F0E080A190E02F7002C0959587952A954A
:101FD000E2F7817008958C5A9E4FEBCF80E0089510
:101FE00090E06623E9F08B5A9E4FFC0180818F3F81
:101FF000B1F0E82FE295EF70F0E041A18F7021E0A1
:1020000030E0B90102C0660F771F8A95E2F7CB0175
:10201000962F9095942391A392A1892B82A3089542
:102020008C5A9E4FE2CF90912D03E92FF0E0409122
:102030002E039F012F5F3F4F237033274217130654
:10204000A9F0E15DFC4F282F2F7780818078822BCB
:1020500060FB87F980839F5F937090932D0380913D
:102060002B038F5F80932B0381E0089580E0089518
:1020700080E0089581E08093DF020895F894E82FCE
:10208000E295EF70F0E031A1282F2F7081E090E011
:1020900001C0880F2A95EAF7982F9095932391A372
:1020A00092A1892B82A3789408950F931F93809116
:1020B0003303882329F00E94F90E1F910F91089590
:1020C0000E94F90E009180021091810220918202FB
:1020D00030918302600F711F821F931FEECF90918A
:1020E0003B0392FF10C041E0282F2471243009F0F7
:1020F00040E031E0282F2871283009F030E0431704
:1021000011F02CE0822793FF10C041E0282F2471AA
:10211000243109F040E031E0282F2871283109F0FE
:1021200030E0431711F02CE0822730913C0330FF60
:1021300010C051E0282F2171213009F050E041E01A
:10214000282F2871283009F040E0541711F029E0B9
:10215000822731FF10C041E0282F2171213109F081
:1021600040E031E0282F2871283109F030E0431792
:1021700011F029E0822794FD877E08958238910529
:10218000B9F1B0F48133910509F47DC048F4893286
:10219000910509F46DC08A32910509F479C008955A
:1021A0008533910509F45FC08933910509F10895DC
:1021B000833E9105D9F138F4803E910529F1823EA4
:1021C000910579F10895863E9105D9F1873E9105F3
:1021D00009F43EC0843E910541F520913C0321FF66
:1021E00024C080913B0384FD19C087EE90E00895E0
:1021F00020913B03237009F056C020913C0323FF3C
:1022000014C089E290E0089520913B0320FD38C07E
:1022100030913C0330FF09C024FF3FC090E080E0D4
:10222000089520913B0322FDF7CF089520913B03B1
:1022300022FD36C030913C0330FD35C024FDEECF89
:10224000F4CF20913B0323FFF0CF24FDE7CFCDCF88
:1022500020913B0323FD2AC030913C0331FFEECF98
:1022600084EE90E0089520913B0325FDCACF0895A8
:1022700020913B0325FD1DC020913C0323FFD5CFBA
:1022800089E390E0089520913B0326FD15C0089551
:1022900020913B0326FD13C0089583EE90E008953E
:1022A00082EE90E0089580EE90E0089586EE90E052
:1022B000089585E390E008958AE290E0089581E32F
:1022C00090E0B3CF1F93CF93DF930E94BE10EC0139
:1022D000C11580E5D807E8F5C11580E4D80708F0F6
:1022E0009BC0C03ED10518F5CD3CD10508F081C09A
:1022F000C83AD10570F4C53AD10508F072C0C130B2
:10230000D10511F118F0C430D105F0F4D0E0C0E0EF
:102310001BC0C33CD105D0F7C85AD0E0CC0FDD1F9D
:10232000C65ADE4F0990D881C02DD4640DC0C115A6
:1023300080E2D80708F0CBC0C11581E0D80708F0CB
:102340005AC0C83ED10510F7CE01DF91CF911F9141
:102350000895C03682E5D80718F5C03482E5D8075D
:1023600008F069C0C03282E5D80708F05DC0C11529
:1023700082E5D80708F493C02C2F2695269580E295
:10238000289F900111248C2F8370C1E0D0E002C0FF
:10239000CC0FDD1F8A95E2F7C22BD32BDD68D4CF9B
:1023A000C03A82E5D80760F4C03882E5D80708F45F
:1023B00057C0CF71D0E0DC2FCC27C46FD06AC4CF18
:1023C000C03C82E5D80708F45EC0C03E82E5D8076D
:1023D00008F09CCFDC2FCC27CC27DF71C06FD06AF0
:1023E000B3CFC55AD0E0C95ADE4FC881D0E0D0641F
:1023F000ABCFD065A9CF8D2F0E946F10182FCE01C3
:1024000099270E94BE10C12FD0E0DC2FCC27CC270B
:10241000DF71C82BD92B98CFCE0199270E94BE100F
:10242000CC27DF70D06AF5CFCF71D0E0DC2FCC277E
:10243000C16FD06A89CF2C2F26952695277080E210
:10244000289F900111248C2F8370C1E0D0E002C03E
:10245000CC0FDD1F8A95E2F7DC68C22BD32B74CF3B
:102460002C2F26952695277080E2289F9001112415
:102470008C2F8370C1E0D0E002C0CC0FDD1F8A95A5
:10248000E2F7DA68EACF8C2F8F710E946F10C82FA5
:10249000D0E0DC2FCC27CC27DF71D06255CF8C2F3A
:1024A0008F710E946F1055E0D695C7955A95E1F748
:1024B000CF70D0E0DC2FCC27282F30E084FF05C080
:1024C00044E0220F331F4A95E1F7D069C6CF8D2F24
:1024D0008F710E946F10182FCE0199270E94BE1095
:1024E000C12FD0E0DC2FCC27CC27DF71906291CFB9
:1024F000982F909580913F02892380933F02089501
:1025000080913F0290911602892B90911502992398
:1025100091F0892B90915601992371F090913B0392
:1025200097FF0AC09EE1E0EDF1E020E0915040F419
:10253000211110921502089596E0E8ECF1E0F5CF34
:102540003191332399F32F5FF1CF809192039091D2
:102550005903981301C008958F5F8770FACFA82F91
:10256000A77023E0969587952A95E1F7FC01EE0F79
:10257000FF1FE80FF91FE60FF71F50E040E080E073
:10258000219130E00A2E02C0369527950A94E2F791
:1025900021703327042E01C0220F0A94EAF7822B00
:1025A0004F5F5F4F4330510559F70895292F9A30F7
:1025B00068F4863058F490E065EF71E036E0239FD0
:1025C000800D911D11240E94AF1208952C5F2230BE
:1025D00020F462EF71E090E0F6CF80E00895262FBE
:1025E000277091E001C0990F2A95EAF723E07695CC
:1025F00067952A95E1F7FB01EE0FFF1FE60FF71F26
:10260000E40FF51F50E040E0682F70E08191DF019A
:1026100011979B01042E02C0369527950A94E2F784
:10262000217021952827292328272C934F5F5F4F5E
:102630004330510559F70895282F862F9A3070F4AA
:10264000263060F4622F70E026E0929F600D711DCD
:10265000112445EF51E00E94EF1208959C5F9230E3
:10266000E0F7622F70E042EF51E0F5CF982F9670BF
:10267000963021F48860809300030895877FFBCF14
:102680009091000321E030E0F90101C0EE0F8A953E
:10269000EAF7D90102C0AA0FBB1F6A95E2F7EA2B3D
:1026A00001C0220F4A95EAF7892F8E23E81305C04F
:1026B000292B822F0E943613089520952923F9CFC4
:1026C00021E030E001C0220F8A95EAF72095809141
:1026D000000382230E94361308959091140280957E
:1026E000892380931402282F277069F4891759F0E1
:1026F00090913C0392FF07C08695869586950E942F
:10270000601310921402089521E030E001C0220FFE
:102710008A95EAF780910003822B0E943613089570
:10272000809390020895982F92959F7020E011F069
:10273000892F24E0982F9695969511F02E5F892F7A
:10274000982F969509F02F5F822F08958091F702B8
:102750008F31D0F48091EF0190E0019665E070E058
:102760000E948D359C018093EF0184E090E0821BF4
:10277000930B982F8827990F8158984F0E941E0D10
:1027800008958FE795E0FACF8832D8F32091EE01D3
:1027900030E02F5F3F4F217033272093EE0181E01F
:1027A00090E0821B930B982F8827990F81589E4F9A
:1027B000E5CF0F931F93CF93DF938B01EA019091A5
:1027C0004F03943061F58093E9008FEF9091E8001A
:1027D000815095FD06C095ED9A95F1F700008111A5
:1027E000F5CF8091E80085FF1AC00E94AA0D8111E3
:1027F00011C08091E80085FD06C08091E8008E77C9
:102800008093E800F2CFF80181918F018093F1006D
:10281000219779F78091E8008E778093E800DF9127
:10282000CF911F910F91089543E050E0BC0184E0E7
:102830000E94D913089540E250E0BC0184E00E9458
:10284000D9130895CF93DF93EC0148E050E0BC0129
:1028500081E00E94D91388E0FE01A5E4B3E0019075
:102860000D928A95E1F7DF91CF910895B0E0A0E055
:10287000ECE3F4E10C94F7347C015B016A01809194
:102880007F0201E010E08A3010F40AE010E0C1E0BD
:10289000D0E0B501C701F6010995811104C0219668
:1028A0000C171D072CF4CDB7DEB7EAE00C941335F6
:1028B000CC9F9001CD9F300D300D112490E080E031
:1028C00045E34A95F1F70000019682179307C1F797
:1028D000E0CFCF93C82F6FEF811164E284E290E0E4
:1028E0000E944D356FEFC11161E185E290E00E94D9
:1028F0004D356FEFC11163E286E290E00E944D35E5
:10290000CF910895CF93DF93C8E2D2E060E0CE018B
:102910000E944D352196C11584E0D807B9F7DF91A3
:10292000CF9108950F931F93CF93DF93843030F5A9
:10293000623020F598E0899FE001112484E0689FCF
:10294000B0011124C60FD71FC85FDD4F82E090E0B1
:10295000442311F090E080E0632F022F142F8C0F9E
:102960009D1F0E944D3583E090E0112311F081E01E
:1029700090E0602F8C0F9D1F0E944D35DF91CF910D
:102980001F910F9108951F93CF93DF93962F84305B
:10299000E8F46A30D8F44630C8F4632F122FC42FFD
:1029A000D0E0CC0FDD1F2CE0929FC00DD11D112473
:1029B00098E7899FC00DD11D1124CE0188960E94F1
:1029C0004D35612FCE0189960E944D35DF91CF9113
:1029D0001F910895B0E0A0E0E0EFF4E10C94F7342B
:1029E0000BE419E1B12CA12CC0E06501D0E020C0BE
:1029F0004E2D21E030E0C33051F0F701EC0DFD1D0C
:102A0000EE0FFF1FED51F84E859194919C016D2FB3
:102A10008C2F0E94C3148FEFE81AF80A86E0E8169C
:102A2000F10431F7DF5F86E0C80ED11CDA3019F00F
:102A3000F12CE12CDDCF21E030E0C33021F0F801B2
:102A4000859194919C0141E060E08C2F0E9492144A
:102A500021E030E0C33029F0F8013296859194915D
:102A60009C0140E060E08C2F0E94921421E030E055
:102A7000C33029F0F8013496859194919C0141E08E
:102A800061E08C2F0E94921421E030E0C33029F0E5
:102A9000F8013696859194919C0140E061E08C2F7D
:102AA0000E949214CF5F085F1F4F8CE3A80EB11CE9
:102AB000C43009F09ACFCDB7DEB7EAE00C941335F5
:102AC00080E00E94691460E087E290E00E944D354A
:102AD0000E94EA140E94821481E00E946914089501
:102AE00084E290E00E942F35843289F485E290E000
:102AF0000E942F35813159F486E290E00E942F35F3
:102B000091E0833209F090E0892F8170089580E090
:102B1000FCCFFF920F931F93CF93DF93843078F510
:102B2000623068F528E0829F8001112434E0639FC1
:102B3000B0011124060F171F085F1D4F82E090E0BF
:102B4000442311F090E080E0F42E800F911F0E944A
:102B50002F35C82FD0E0DC2FCC2783E090E0FF207A
:102B600011F081E090E0800F911F0E942F359E01AF
:102B7000282BC901CDB7DEB7E5E00C94183590E0FD
:102B800080E0F8CF0F931F93CF93DF93843030F51D
:102B90006A3020F5463010F5C42FD0E0CC0FDD1F91
:102BA0002CE0629FC00DD11D112438E7839FC00D1A
:102BB000D11D1124CE0188960E942F35082F10E0D8
:102BC000102F0027CE0189960E942F359801282BBF
:102BD000C901DF91CF911F910F91089590E080E09E
:102BE000F8CF7A3048F4663070F4843060F4462FC1
:102BF000672F0E94C21508957D3F41F4623018F49A
:102C000041E0843050F090E080E008957C3FD9F7B7
:102C10006230C8F78430B8F740E00E948915089503
:102C2000CF92DF92FF920F931F93CF93DF936C01AC
:102C30000091000380919002082BC3E0D0E010E0E7
:102C4000FC2EC8010C2E02C0959587950A94E2F7D8
:102C500080FD0CC02197A0F7F12C8F2DDF91CF9133
:102C60001F910F91FF90DF90CF900895B6018C2FA8
:102C70000E94F1150E946211019761F3EECFCF938C
:102C8000DF93EC010E941016BE010E94F1150E9414
:102C90006211DF91CF910895FC0124812223B9F0C4
:102CA000808191810E943F1692959F70963089F0A5
:102CB00050F49250923058F4803F19F030F4883E2E
:102CC00030F481E008959A50F5CF843FD1F380E04D
:102CD0000895883EB0F3813FD1F7F3CFA6E0B0E08E
:102CE000E4E7F6E10C94FE3449835A8349815A8122
:102CF0009923A1F0222391F0CA010E941016182FE7
:102D0000682F89819A810E941C1369817A81812FA1
:102D10000E94F1152696E3E00C941A35CA010E9430
:102D2000D612182FF2CF80915601882359F1809145
:102D30003B0387FF27C00E9480128093CF0140E2AF
:102D400050E067E172E08EEC91E00E941136892B31
:102D5000C1F080E2EEECF1E0A7E1B2E001900D926B
:102D60008A95E1F7E0913703F0913803309749F005
:102D700086E08093CE010480F581E02D8EEC91E019
:102D8000099508950E9480128093C60148E050E0A2
:102D900067E372E086EC91E00E941136892B89F39B
:102DA00088E0E6ECF1E0A7E3B2E001900D928A95AD
:102DB000E1F7E0913703F0913803309711F3028087
:102DC000F381E02D86EC91E0DBCF10923F02809101
:102DD00056018823C1F080913B0387FF14C0E0EDCA
:102DE000F1E08EE1DF011D928A95E9F790E080E045
:102DF0000E94880F90E080E00E94630F10921602FC
:102E00000E9493160895E8ECF1E086E0EBCFAAE289
:102E1000B0E0EDE0F7E10C94FE34E1E5F3E0809101
:102E2000F100819383E0E935F807C9F780915203F7
:102E3000833009F47FC008F5813009F456C0823030
:102E400009F4C0C08091E80083FFFAC0809151036B
:102E5000909152039A3008F0F3C0E92FF0E0ED5C56
:102E6000F84E0C94E235F317191820181918201889
:102E700071189318201892199F198A3009F491C07B
:102E80008B3009F474C08930E9F6809151038132A6
:102E9000C9F68091550390915603009711F002975F
:102EA00089F68091E800877F8093E8008091E800B0
:102EB00082FF3BC08091F3009091F2008927982710
:102EC0008927029731F48091F100813011F086302A
:102ED00021F48091F100809344038091E8008B7786
:102EE0008093E8000E94D90DADCF80915103813AC3
:102EF00009F0A8CF8091E800877F8093E800809157
:102F0000550390915603892B61F060E090E080E0DA
:102F100070E00E94850E8091E8008B778093E80036
:102F200091CF68E085E493E0F3CF80914F03811166
:102F3000BDCF88CF80915103813A09F083CF809132
:102F4000550390915603892B09F07CCF8091E800BE
:102F5000877F8093E8008091E80080FFFCCF80911C
:102F600056018093F1008091E8008E77B9CF80916F
:102F70005103813209F066CF809155039091560339
:102F8000892B09F05FCF8091E800877F8093E8006C
:102F90000E94D90D80915303809356010E94E5163B
:102FA00051CF80915103813209F04CCF8091E800DC
:102FB000877F8093E8000E94D90D8091540380930D
:102FC000430340CF80915103813A09F03BCF809178
:102FD000E800877F8093E8008091E80080FFFCCFC5
:102FE00080914303BECF803889F0823849F58091C3
:102FF00055038F70873020F58093E9008091EB00B6
:1030000085FB882780F91092E90006C080914D0366
:1030100090914E03911182609091E800977F909378
:10302000E8008093F1001092F1008091E8008E7723
:1030300027C0282F2D7F21F48823A1F0823029F189
:103040008091E80083FF0AC08091E800877F809329
:10305000E8008091EB0080628093EB00AA96E3E0A9
:103060000C941A3580915303813051F7933009F055
:1030700080E080934E031092E9008091E800877F02
:103080008093E8000E94D90DDBCF8091530381111A
:10309000F2CF809155038F702FEF280F263080F6E6
:1030A0008093E9002091EB0020FFE5CF933031F4CD
:1030B0008091EB0080628093EB00DDCF9091EB007C
:1030C00090619093EB0021E030E001C0220F8A95DF
:1030D000EAF72093EA001092EA008091EB00886002
:1030E000EACF8111ADCF109153031F778091E30098
:1030F0008078812B8093E3008091E800877F809324
:10310000E8000E94D90D8091E80080FFFCCF8091FB
:10311000E30080688093E30083E0111101C082E046
:1031200080934F038DCF8058823008F089CF209153
:103130005303309154032C3DA3E03A07A1F583E0FB
:103140008A838AE289834FB7F894DE01139620E0E0
:103150003EE051E2E32FF0E050935700E49120FF6E
:1031600003C0E295EF703F5FEF708E2F90E0EA3082
:10317000C0F0C7968D939D932F5F243159F74FBFB1
:103180008091E800877F8093E8006AE270E0CE01DA
:1031900001960E94850E8091E8008B778093E8006D
:1031A0004FCFC096E7CF8091550390915603432FA0
:1031B00055274330510509F44FC078F5413051058A
:1031C00009F445C08BE590E0E3E6F9E142305105B2
:1031D00009F036CF2091E800277F2093E800209166
:1031E0005703309158038217930708F49C0140E07D
:1031F0002115310509F063C0411161C08091E800DB
:1032000082FDC9CF80914F03882329F2853019F2BE
:103210008091E80083FFF2CFBECF4132510509F41F
:103220003FC04232510509F00BCF8330910508F0C1
:1032300007CFFC01EE0FFF1FE854FE4F0190F08115
:10324000E02D8B549E4FDC018C9190E01DC082E1FB
:1032500090E0EEEBF9E1BECF332721303105C1F02C
:1032600060F02230310509F0EBCEE0EDF9E1E491B8
:103270008E2F90E0E0EDF9E107C0EAEFF9E1E4918B
:103280008E2F90E0EAEFF9E1009709F4D9CEA2CFB2
:10329000EEEDF9E1E4918E2F90E0EEEDF9E1F4CF5F
:1032A0008330910508F0CCCE880F991FFC01E254C1
:1032B000FE4F0190F081E02D89E090E08BCF80916E
:1032C0004F03882309F467CF853009F464CF8091D8
:1032D000E80083FD60CF8091E80082FD8FCF809170
:1032E000E80080FF85CF8091F3009091F20089275C
:1032F000982789272115310519F08830910550F05C
:1033000041E0089709F040E08091E8008E778093D3
:10331000E8006ECF44914093F1003196215031097D
:103320000196E8CF803809F08BCE8091E800877F46
:103330008093E800809150038093F10076CE811154
:103340007FCE10915303123008F07ACE8091E800BE
:10335000877F8093E800109350030E94D90D1123BA
:10336000D1F084E080934F0342E061EC81E00E9461
:10337000F80D42E261EC84E00E94F80D42E261EC5B
:1033800082E00E94F80D42E260EC83E00E94F80DBA
:1033900080914F0355CE8091E30087FDE2CF81E01D
:1033A000E1CF0E94E5162FEF84E39CE0215080409E
:1033B0009040E1F700C0000088E19AE00FB6F89471
:1033C000A895809360000FBE90936000FFCF882384
:1033D00021F00E9478120E9493160895882339F0F4
:1033E00090913F02892B80933F020E94931608958B
:1033F000882339F19CEF980F913A28F40E94050F29
:103400000E949316089590E2980F983050F48770B8
:1034100091E001C0990F8A95EAF7892F0E947812EE
:10342000EFCF9BE5980F933028F490E080E00E9466
:10343000880F0895885A8B3120F490E080E00E9434
:10344000630F0895CF938823C1F1C82F8CEF8C0FA1
:10345000813AA8F580915601882301F180913B03C0
:1034600087FF1CC0EC2FE695E695E695F0E0E25369
:10347000FE4F828190E04C2F477021E030E002C087
:10348000220F331F4A95E2F782239323892B81F081
:103490008C2F0E94050F0E9493160AC0E8ECF1E001
:1034A0008EEC91E02191C21799F38E179F07D1F707
:1034B0008C2F0E942F0F0E949316CF91089580E2C7
:1034C0008C0F883068F4C77021E030E001C0220F13
:1034D000CA95EAF780913F02822B80933F02EBCF9F
:1034E000EBE5EC0FE33040F4F0E0E95AFE4F808169
:1034F00090E00E94880FE1CFC85ACB31F0F6EC2F54
:10350000F0E0EE0FFF1FE65AFE4F808191810E948E
:10351000630FD3CF1F93CF93DF93162F8A3039F4E5
:1035200081E00E942E1BDF91CF911F9108958D3075
:1035300011F480E0F6CFC0919805D091990596E0FE
:10354000FE01ABEEB2E001900D929A95E1F7803E5C
:1035500080F186E0FE0111928A95E9F7C091980505
:10356000D0919905111131C046E050E0BE018BEEBB
:1035700092E00E941136892B99F59E012259334021
:103580004091F102642F70E0C9010E94DB34481BB6
:10359000463010F4240F311D2115F2E03F0710F0E2
:1035A00030E020E028563C4F309399052093980551
:1035B000BACFF6E08F9FB00111246F5A7D4E46E0DE
:1035C00050E0CE010E942635C9CF9E012A5F3F4FB1
:1035D000FE012E173F0741F2808180958193F9CF3C
:1035E000CE01885993409C0145E0369527954A9530
:1035F000E1F741E050E0BA0102C0660F771F2A955B
:10360000E2F79B016091960370919703262B372B6D
:10361000059665E0969587956A95E1F7FA0102C0EF
:10362000EE0FFF1F8A95E2F7CF01822B932B909329
:10363000970380939603A1CF1F93CF93DF93EC0161
:10364000162FFE018491811104C0DF91CF911F914B
:103650000895612F0E948A1A2196F3CFCF93382FB5
:10366000E0919805F0919905E859F3402091F10215
:10367000622F70E0CF010E94DB34281B822F33239E
:1036800069F066E00E948135C82FC15010F4CF91D7
:10369000089560E080E20E948A1AF7CF9F01280F08
:1036A000311D2115324018F080E0F0E0E0E08E0F8F
:1036B0009F2F911D88569C4F909399058093980554
:1036C000E6CFAB0124E630E0BC0188E70E948E32F1
:1036D00021E0892B09F020E0822F089580912703B3
:1036E00090912A03911103C091E0892708958823BE
:1036F00069F062E070E083E997E10E94611B81114B
:1037000003C0809127030895109227038091270317
:10371000EBCFCF93C091270380912A038823D1F068
:103720000E94F90E605A75418F4F9F4F609323039B
:10373000709324038093250390932603C11108C03E
:1037400062E070E081E997E10E94611B811105C090
:10375000C09127038C2FCF91089581E08093270398
:10376000F7CF90913C0392FB222720F9281779F09C
:1037700080FB92F990933C0360913B0370913C0372
:1037800084E090E00E946B3582E00E946D13089502
:10379000A4E0B0E0EEECFBE10C94FE344091770243
:1037A000509178026091790270917A022FB7F89463
:1037B00080913E0390913F03A0914003B09141035B
:1037C0002FBF841B950BA60BB70B11E08436910518
:1037D000A105B10570F10E9455106E5F7F4F8F4FAC
:1037E0009F4F69837A838B839C8380913101909171
:1037F0003201825A9D4F4091300150E045305105D1
:1038000010F044E050E0BE016F5F7F4F0E941E3613
:1038100086E090E00E946434182F882351F00E94C3
:10382000F90E6093770270937802809379029093F7
:103830007A02812F2496E3E00C941A35B0E0A0E0E0
:10384000E4E2FCE10C94F534FB0180809180A280DD
:10385000B3809FB7F894C0903E03D0903F03E090B0
:103860004003F09041039FBFC818D908EA08FB083D
:1038700094E6C916D104E104F10418F4C1E044232C
:1038800041F1C82F880FDD0BDE0183E0AA0FBB1FBB
:103890008A95E1F7A050BF4F11968D919C91129798
:1038A000825A9D4F4C9150E00417150708F4A80167
:1038B000B9018F010E941E36CE010E946434C82FC8
:1038C000882339F00E94F90EF801608371838283A6
:1038D00093838C2FCDB7DEB7ECE00C941135A1E0CB
:1038E000B0E0E5E7FCE10C94FD348091F7028983B8
:1038F00041E090917602981301C040E001E010E0B1
:103900009E012F5F3F4F6BE772E087E00E941E1C15
:103910002196E4E00C9419350F931F93CF93DF9316
:10392000EC0145E050E064E672E00E94113641E0AF
:10393000892B09F440E005E010E09E0165E572E0A6
:1039400082E00E941E1CDF91CF911F910F9108957C
:10395000A1E0B0E0EEEAFCE10C94F334C62E4A019B
:103960005901682E880F7708C3010E946434D82E4D
:10397000882309F474C0C30123E0880F991F2A9596
:10398000E1F7FC01E050FF4F438150E04115510544
:1039900011F041E050E080509F4FFC01648175813F
:1039A000625A7D4FCE0101960E941E36F40140817D
:1039B0005181628173812FB7F89480913E03909179
:1039C0003F03A0914003B09141032FBF841B950B8F
:1039D000A60BB70B84369105A105B10538F4B701E4
:1039E000C8010E94BE0F99818917C9F10C2C000CE7
:1039F000DD08C6010E946434782E8823C9F0960140
:103A000083E0220F331F8A95E1F7F901E050FF4F61
:103A1000438150E0E416F50608F4A70120503F4F1B
:103A2000F90164817581625A7D4FC5010E941E367D
:103A3000B701C8010E94BE0F91E02981281390E0D0
:103A4000D92ED72039F00E94F90EF40160837183DA
:103A5000828393838D2D2196EEE00C940F35A70180
:103A6000B801C5010E941E36F5CFA8E0B0E0EBE337
:103A7000FDE10C94FB3488E0E82EF12C0AE612E01C
:103A80009E012F5F3F4F4AE552E064E083E00E94D1
:103A9000A81C082F882389F190916902809159020E
:103AA000981759F110E090916D0280916C0289177E
:103AB000F1F0E92FF0E0EE59FD4F848587FB662792
:103AC00060F99F5F937090936D0290916B029F5F7E
:103AD00090936B028F770E941310182F8111E3CF00
:103AE00085E090E00E946434012F082302C0111188
:103AF000F7CF8091690280935902802F2896E6E0E3
:103B00000C941735A5E0B0E0E8E8FDE10C94F93439
:103B10006B0185E0E82EF12C0FE512E09E012F5F8E
:103B20003F4F41E552E061E080E00E94A81C8823FD
:103B300049F095E0FE013196ACE4B2E001900D92BF
:103B40009A95E1F795E0ECE4F2E0D60101900D9250
:103B50009A95E1F72596E8E00C9415351F93CF93DD
:103B6000DF93182FEB010E94221A209739F4812F3E
:103B70000E94F819DF91CF911F9108958FE99FE07E
:103B80000197F1F700C000002197EFCF1F920F922D
:103B90000FB60F9211242F933F934F935F936F9320
:103BA0007F938F939F93AF93BF93CF93EF93FF93A5
:103BB000C091E900CF708091EC001092E9008091F3
:103BC000F000877F8093F00078940E94071710928E
:103BD000E9008091F00088608093F000C093E900D4
:103BE000FF91EF91CF91BF91AF919F918F917F9175
:103BF0006F915F914F913F912F910F900FBE0F905A
:103C00001F9018951F920F920FB60F9211242F93A9
:103C10003F934F935F936F937F938F939F93AF9354
:103C2000BF93EF93FF938091E10082FF09C08091E1
:103C3000E20082FF05C08091E1008B7F8093E1006C
:103C40008091DA0080FF24C08091D80080FF20C0DE
:103C50008091DA008E7F8093DA008091D90080FF16
:103C60009BC080E189BD82E189BD09B400FEFDCF22
:103C700081E080934F0380914203811109C00E942B
:103C80008B0D0E942A0E8091E20084608093E200F6
:103C90008091E10080FF17C08091E20080FF13C097
:103CA0008091E2008E7F8093E2008091E20080614B
:103CB0008093E2008091D80080628093D80019BC84
:103CC00085E080934F038091E10084FF29C08091BB
:103CD000E20084FF25C080E189BD82E189BD09B48D
:103CE00000FEFDCF8091D8008F7D8093D800809119
:103CF000E1008F7E8093E1008091E2008F7E8093CF
:103D0000E2008091E20081608093E20080915003A4
:103D1000882309F447C084E080934F0380914F03C8
:103D20008091E10083FF27C08091E20083FF23C0E0
:103D30008091E100877F8093E10082E080934F03D0
:103D4000109250038091E1008E7F8093E10080917A
:103D5000E2008E7F8093E2008091E2008061809398
:103D6000E20042E060E080E00E94F80D8091F00007
:103D700088608093F000FF91EF91BF91AF919F9188
:103D80008F917F916F915F914F913F912F910F9004
:103D90000FBE0F901F90189519BC10924F031092F0
:103DA000420376CF8091E30087FD02C081E0B4CF6B
:103DB00083E0B2CF78941F920F920FB60F92112426
:103DC0008F939F93AF93BF9380913E0390913F0356
:103DD000A0914003B09141030196A11DB11D8093B4
:103DE0003E0390933F03A0934003B0934103BF91E0
:103DF000AF919F918F910F900FBE0F901F901895CC
:103E00009C014FB7F89480913E0390913F03A0919D
:103E10004003B09141034FBF821B930B08952FB70E
:103E2000F89480913E0390913F03A0914003B0919C
:103E300041032FBF08950F931F93CF93DF93C62F96
:103E4000D42F122FFC0185818823A9F0609395035C
:103E50000E940F1F9093940380939303C77081E097
:103E600001C0880FCA95EAF70E94EE19DF91CF9141
:103E70001F910F91089580919503681334C080912C
:103E80009303909194030E94001F8436910558F586
:103E900000E20D0FCD17B9F080E28C0F883040F4AE
:103EA000C77081E001C0880FCA95EAF70E94E71940
:103EB000083000F581E09D2F977001C0880F9A951A
:103EC000EAF70E94EE196AE070E0812F0E94AE1DB1
:103ED000083060F6D77081E001C0880FDA95EAF704
:103EE0000E94E719C3CFC77081E001C0880FCA954F
:103EF000EAF7F6CF6AE070E0812F0E94AE1DB6CFE0
:103F0000A8E0B0E0E6E8FFE10C94EF34FC01848126
:103F1000882309F42CC18F0121E040815181628105
:103F2000738195810E946E167C01F8012581222300
:103F300009F4DDC19A9581159F4408F064C0C7015A
:103F40009927AC01445051094432510518F08B9720
:103F50000E9780F4E091A202F0E0EE0FFF1FE9550A
:103F6000FD4F808191818F3F3FE7930719F00196C4
:103F700091838083C70197578038910508F44DC01D
:103F8000F701E851FC47E730F10508F4B6C110929B
:103F90009503C7019057839708F078C584E090E0B7
:103FA0000E94373590933C0380933B03F701E15027
:103FB000F047E232F10508F034C2EF51F04E0C94B4
:103FC000E2354B22C02253221D22212257222522D4
:103FD0005B2267223122B92235226B2239226F22DD
:103FE00097223D2273229E22432279228122292276
:103FF0005F222D22632247227D228D22A722B72213
:1040000017224F22C722C7013FEFE316F10409F040
:1040100008F497CF90E080E094CF8FE08E1508F4FD
:1040200097C08FEF93E00E942F35811191C068E215
:10403000A62E62E0B62EE11058C02E01F3E04F0E1E
:10404000511C86E0F20111928A95E9F75AE0352E6B
:104050007501FFEFEF1AFF0AC5010E942F35898312
:104060001A82882309F474C0813009F084C0650184
:1040700022E0C20ED11CC7010E942F358A838823FB
:1040800009F466C09FEF980F9330E8F533E0A30E74
:10409000B11CC6010E942F358B83882309F458C0B8
:1040A0001C82CE0101967C01F7012081222381F23E
:1040B000213009F09FC091818281913009F05DC06B
:1040C000F2E0EF0EF11C60E570E0893311F06AE078
:1040D00070E00E94AE1DEFE3FCE93197F1F700C0FC
:1040E00000009FEFE91AF90ADFCFA11494E0B906A6
:1040F00079F1C5010E942F35811101C0EA94EFEFDB
:10410000AE1ABE0A98CF5601843059F6420142E0F9
:10411000E42EF12C56018FEFA81AB80AC6010E94AE
:104120002F35F40181934F01882391F08C3741F4AE
:10413000E2E0F0E0EC0FFD1FEE0DFF1D1082B1CFAD
:10414000FFEFEF1AFF0A650127E0E216F10411F70D
:1041500080911402877059F0F8018581882339F025
:1041600080913C0382FF03C082E00E946D13289679
:10417000E2E10C940B35570194CF923031F422E0F8
:10418000E20EF11C0E94221AA6CF933031F432E0E5
:10419000E30EF11C0E94F8199ECF943021F08FEFAE
:1041A000E81AF80A98CF92E0E90EF11C30E020E01E
:1041B000B7016F5F7F4FF70141818053990B8A30C0
:1041C000910568F02115310509F485CF8FE99FE04D
:1041D0000197F1F700C0000021503109F3CF329E62
:1041E000F001339EF00D11249C012E0F3F1F842FF0
:1041F0007B01DECFE22FF0E0E155FE4E2490822FCE
:1042000086958695869590E0FC01E156FE4E649079
:104210002770712C022E02C0759467940A94E2F7FD
:10422000F1E06F227724FC01E157FE4E8490912C3F
:10423000022E02C0959487940A94E2F731E083221B
:104240009924FC01E158FE4EC490D12C02C0D594B3
:10425000C7942A95E2F781E0C822DD246114710435
:1042600049F081EE0E94221AEFE3FCE93197F1F761
:1042700000C000008114910449F086EE0E94221AC9
:104280008FE39CE90197F1F700C000006AE070E05D
:10429000822D0E94AE1DEFE3FCE93197F1F700C0DB
:1042A00000008114910449F086EE0E94F8198FE312
:1042B0009CE90197F1F700C000006114710449F016
:1042C00081EE0E94F819EFE3FCE93197F1F700C0A5
:1042D0000000C114D10409F404CF6AE070E08CE25C
:1042E0000E94AE1D8FE39CE90197F1F7F8CEFC0127
:1042F000E851FC47E730F10548F5EF57FE4D0C94C7
:10430000E2359321972188218F219B219F21A32191
:1043100026E241EE61EEC8010E941B1F19CF27E281
:1043200045EE65EEF8CF26E241EE60EEF4CF27E2EF
:1043300045EE64EEF0CF26E241EE62EEECCF27E2EE
:1043400045EE66EEE8CF28E241E0EBCF8631ECE7C0
:104350009E0709F487C38737FCE79F0709F42BC141
:1043600088379C4709F42BC1F8018581E080F180F2
:10437000882309F46DC1C7010E941016D82E682F3A
:10438000C7010E941C13B7018D2D0E94F1150E94D8
:1043900062117C01982EF801B580A680A2943FE0BE
:1043A000A32280911402877009F1CB2CBB20F9F075
:1043B0008F2D807F803469F080E28E0D8830B0F0E0
:1043C0008F2D807E803229F4F1E0FE1578F4AA204A
:1043D00069F080913C0382FF09C082E00E946D1366
:1043E000809114028770CC24C3948111C12CDF2CDE
:1043F000D2942FE0D2222BE02D1508F492C1ED2D9E
:10440000F0E0EB5FFD4D0C94E2352D232D23672367
:1044100067230D249123912391232C249824AB24EA
:10442000AB2480913B03816080933B0395C08091D6
:104430003C03886080933C038FC080913B03826083
:10444000F3CF80913B038460EFCF80913B03886082
:10445000EBCF80913C038160EDCF80913C03826083
:10446000E9CF80913B038061DFCF80913B03806285
:10447000DBCF80913B038064D7CF0E94E51680910B
:104480003B038068D1CF80913B038860DCCF809173
:104490003C038260E0CF80913B038E7FC5CF80914B
:1044A0003C03877FC7CF80913B038D7FBDCF809139
:1044B0003B038B7FB9CF80913B03877FB5CF809142
:1044C0003C038E7FB7CF80913C038D7FB3CF80912B
:1044D0003B038F7EA9CF80913B038F7DA5CF809139
:1044E0003B038F7BA1CF0E94E51680913B038F7722
:1044F0009BCF80913B03877FDCCF80913C038D7FF6
:10450000E0CF80913B0382FB992790F921E092272D
:1045100090FB82F990FB83F987CF80913C03982F21
:10452000909591708E7F892B90FB81F983CF90912C
:104530003B03892F8F7B96FF806476CF0E94E51620
:1045400090913B03892F97FB87F980586DCF61E0ED
:104550008EE090E00E944D3560913B0370913C03EA
:1045600084E090E00E946B350E94E516F1CD60E09A
:10457000EFCF90913B03892F8F7E94FF806154CFC2
:1045800090913B03892F8E7F90FF81604DCF90915A
:104590003C03892F877F93FF88604CCF89E20E947C
:1045A0002F0F0E949316D4CD89E20E94050FF9CFF8
:1045B00081E021117DC281E00E9460137BC282E014
:1045C000FBCF222309F4D0CE33E0E3163CE7F30619
:1045D00061F160F4E1149CE7F906D1F0E1E0EE1638
:1045E000ECE7FE0609F0C0CE0E94D119FBE5EF16FC
:1045F000FCE7FF0659F12CE5E2162CE7F206E1F0A4
:104600003AE5E3163CE7F30609F0AECE81E01BC0C5
:104610000E94E5168FEF94E3ECE081509040E0407B
:10462000E1F700C000000E94E80E6FEF7FEF90E01E
:1046300080E00E946B35D8CF80913C0382FB8827B5
:1046400080F991E089270E94B11B8ECE80E0FBCFDC
:10465000C7010E94D612D82E96CE3F2D3F70D32E82
:104660008F2D807F19F0D29490EFD9228E2DBB2010
:10467000B9F0DD2069F090E29E0D983010F0E11065
:1046800009C080913F02D82AD0923F020E9493161F
:104690008E2D45C080911602D82AD0921602F6CFF0
:1046A0000E94F819DD20E9F180E28E0D883010F0CB
:1046B000911004C08D2D0E94781206C0D094809174
:1046C0001602D822D09216020E9493162AC08F2D6D
:1046D0008F70D82E8F2D807F803219F0D29480EF8A
:1046E000D8228E2D992059F091E0991609F470C0C6
:1046F000BB2009F47CC0AA2009F43FC0C9CF809137
:104700003C0382FD36C0BB2071F1DD2039F0809181
:104710003F02D82AD0923F020E94931680E00E9466
:10472000221ACC20A9F08091140280FD11C0F8015A
:1047300015828695869586950E948413C8010E94ED
:10474000801F809114028695869586950E9460133D
:1047500020E0F801408151816281738184819581DB
:104760000E946E1604CD80E00E94F819DD20C9F287
:10477000A1CFBB2099F0A11004C08D2D0E94EE198D
:10478000D0CFE1E0AE12CDCF809115029D2D9823C0
:10479000D91639F2D82AD0921502C3CFA110C1CFB1
:1047A0008D2D0E94E719909115028D2D892329F0F6
:1047B0008D2D80958923809315028091F1019D2D87
:1047C000982309F4AECFD094D822D092F101A9CF8A
:1047D000BB2029F0F5E0FA1508F4A3CFCECF24E0F2
:1047E0002A1508F49ECF8D2D0E94E7199ACFAA2092
:1047F000D1F3893369F43FEF87EE93E03150804085
:104800009040E1F700C000008E2D0E94F81989CF7A
:10481000EFE3FCE93197F1F7F5CF8F2D869586957B
:10482000837041F0813079F088EF8D0D843008F08D
:1048300078CF3DC0C7019370B11002C080E090E016
:104840000E94880F6ECFC7019370B11002C080E044
:1048500090E00E94630F65CF8F2D837099F5B110A2
:1048600026C04E2D429546954770440F440F8E2D1D
:104870008F70042E01C0880F0A94EAF720E0E4FE4E
:1048800007C02FE030E001C0220F4A95EAF72095DB
:104890003F2D369536953370323079F060F4409183
:1048A0009002313039F0822B84230E9490130E94B1
:1048B000AD0F37CF842B822BF8CF282B809190021D
:1048C0008227F3CF8695BB2011F08F2D817088232E
:1048D00071F34E2D429546954770440F440F8E2D2F
:1048E0008F70042E01C0880F0A94EAF720E0E4FEDE
:1048F00007C02FE030E001C0220F4A95EAF720956B
:104900003F2D369536953370323069F050F4409132
:104910000003313029F0822B84230E943613C7CF45
:10492000842B822BFACF282B809100038227F5CF8E
:10493000FF2DFF70FF2EBB2039F08F2F0E948413B4
:104940008E2D0E94EE19B3CF8E2D0E94E7198F2D68
:104950000E946013ACCF8E2D22EF9216E1F1291543
:1049600080F030EF9316F1F091EF9916A1F0BB2093
:1049700009F45FC0AA2009F459C08E2D0E94221AA2
:1049800053CFE3EF9E1671F1F4EF9F12F0CF9091A9
:104990003C0392FD32C08F2D8F71BB2001F10E942C
:1049A000841342CFBB2091F024E02A1508F43CCFB9
:1049B0002F2D2F7181E090E001C0880F2A95EAF732
:1049C0009091000389270E9436132ECF35E03A15C7
:1049D00008F42ACFEDCF8F2D8F71BB2001F30E94F9
:1049E000601322CF80E0BB2071F39F2D9F7181E087
:1049F00001C0880F9A95EAF7E6CFBB2061F08F2DB2
:104A00008F7192FFCCCF98E0899F90011124236091
:104A100020931402C4CF81E00E946D13E1E0EA15F7
:104A200008F002CF82E00E946D13FECE8F2D8F71B1
:104A3000B6CFAA20A1F0893369F4FFEF27EE33E067
:104A4000F15020403040E1F700C000008E2D0E9460
:104A5000F819EACE8FE39CE90197F1F7F5CF8F2D96
:104A60008F71BDCF8091F001882309F49DCD85E33E
:104A70009CCD80913F028A7A91E009F490E0909376
:104A8000F001882309F48ACD85E389CDF6E1EF169C
:104A9000FCE7FF0671F337E7E3163CE7F30609F49A
:104AA00087CD88E7E8168CE7F80609F08ACD82E022
:104AB0000E94841343E062E081E00E94401348CBEF
:104AC000CF93DF9380911302807F09F04DC08091D6
:104AD0001202882309F448C0E091920350915903CF
:104AE000C0910E02D0910D0260910F0270911002E0
:104AF00047E05E17C9F18E2F90E0E49FF00111248A
:104B0000E65AFC4F2481222391F1489FF001499FEE
:104B1000F00D1124DF01A65ABC4F11962C9111976C
:104B20002C1325C02C912D1322C015962C9115976E
:104B300021111DC012962D913C91261B370B243656
:104B40003105A8F4809113028F7080618093130265
:104B5000E05AFC4F80818F70806180838DE092E00D
:104B60000E94801F0E94A512DF91CF910895FC0141
:104B70003196E770BECFA4E1B0E0E1ECF5E20C9431
:104B8000F5348C0186E0F801DE011F9601900D924C
:104B90008A95E1F7F8018481E5809DE0A92E92E0F5
:104BA000B92E90911102911128C0882319F1EE209D
:104BB000F1F0C8010E944C16F82E8823C1F087E05E
:104BC000F801D50101900D928A95E1F780911102CB
:104BD000813031F480910D0290910E020E943F16B7
:104BE0000E9460258F2D6496ECE00C941135C8016D
:104BF0000E94801FFF24F394F5CFD080C180828073
:104C00009380F090120220910F0230911002A401C3
:104C1000421B530BFF2009F4D8C04436510508F05D
:104C200091C08823F9F290910E0280911302282FEF
:104C3000207F09F055C0C91214C090910D02D912FD
:104C400010C0E11047C08F708061809313028DE027
:104C500092E00E94801F80911302F8018683F12C5C
:104C6000C1CFE11037C06C2D8D2D0E946C0D6C2DC5
:104C70008D2D0E946C0DE82E8111F1CFDF86C88A40
:104C80008F8598890E943F16292F22952F702430F6
:104C900058F49F70223080F0992391F0F8019681AA
:104CA000907F71F4FE2C9ECF2A50223068F0C8010C
:104CB0000E94801FEF2CF6CF992311F0882391F3E7
:104CC000805E8830A0F7EECF803F60F3815F833055
:104CD00070F7E8CF80911302816080931302BFCFF9
:104CE000C91207C090910D02D91203C0EE2009F439
:104CF0008DC0C8010E944C16882309F478CFEE209D
:104D000009F475CF80911302803288F020910D0252
:104D100030910E02398728879B868A8690911102EE
:104D20009C871D868E87CE0108960E94801F87E093
:104D3000F801ADE0B2E001900D928A95E1F70E9492
:104D4000602558CF90911302292F207F51F48DE0D8
:104D500092E00E94801F87E0F50111928A95E9F7A1
:104D60007ECF882309F43ECF80910E028C1110C0B3
:104D700080910D02D8120CC0E1100AC09683C801C0
:104D80000E94801F87E0F50111928A95E9F72ACFEA
:104D9000C8010E944C16882309F429CFEE2009F49B
:104DA00026CF80911302803210F220910D023091B3
:104DB0000E023A8329839C828B82909111029D83FB
:104DC0001E828F83CE010196B0CF44365105D0F6B6
:104DD000882309F40FCFFE2CEE2009F408CF809130
:104DE0000E028C1120C080910D02D8121CC080913F
:104DF000130280FD0FC0982F907F61F08683903F53
:104E000031F0982F907F905F8F70892B8683C80137
:104E10000E94801F87E0F801ADE0B2E001900D92A2
:104E20008A95E1F7DFCEC8010E944C1681117FCF31
:104E300080911302816080931302C8010E94801F39
:104E4000D1CEABE1B0E0E7E2F7E20C94FD344E8B5B
:104E50005F8B688F798F8A8F9B8F192F911110929A
:104E600016021D8A86E0FE017696DE011F960190ED
:104E70000D928A95E1F70A8D002341F021E04F85DC
:104E8000588969897A89C8010E946E160B8B1C8B20
:104E900087E0FE013F96DE01189601900D928A95FB
:104EA000E1F7CE0108960E94BB2581112AC087E058
:104EB000FE013896DE01119601900D928A95E1F778
:104EC0008C858823F1F02091590330E0C9010196C7
:104ED00087709927409192034817190659F197E076
:104EE000929FD001939FB00D1124A65ABC4FFE0192
:104EF000319601900D929A95E1F7809359030E94A3
:104F0000A51217E080919203909159038917F9F047
:104F1000819FC0011124865A9C4F0E94BB25882383
:104F2000B1F08091920390E0019687709927809369
:104F30009203E8CF0E94E516109259031092920353
:104F400087E0EDE0F2E0DF011D928A95E9F76B96CC
:104F5000E4E00C941935ACE0B0E0E1EBF7E20C943E
:104F6000F83480E00CEF93E0F92EEE24E3942DEF7B
:104F7000D22E32E0C32E90912E0320912D032917BB
:104F800009F454C0E92FF0E0E15DFC4F108117FBFC
:104F9000BB24B0F81F779F5F937090932E0380918E
:104FA0002C038F5F80932C03B11008C00E940F1F49
:104FB0001F8308879A878987FB8607C00E940F1F77
:104FC0001F83D8869A878987CB86EC864F81588540
:104FD00069857A858B859C850E9421278FE39CE9D2
:104FE0000197F1F700C00000BB20C1F00E940F1F25
:104FF0001983DA829C838B83CD821E8249815A81F8
:105000006B817C818D819E810E9421278FE39CE9A9
:105010000197F1F700C0000081E0ADCF0E940F1FA3
:1050200019830A839C838B83FD82E7CF2C96E9E06A
:105030000C941435B0E0A0E0E0E2F8E20C94F33414
:1050400080912A03882309F411C28091280390914A
:1050500029030E94001FC29708F49CC00E940F1FE2
:10506000909329038093280388E993E0909399050E
:105070008093980580913303882309F4CAC060E0C7
:105080008CED97E10E941C1B60E086ED97E10E9489
:105090001C1BC090F70280914C018C1105C08091BF
:1050A000F602803309F448C0C0924C0180E380933B
:1050B000F602D12CF12CE12C1092F502C701B601B9
:1050C0002AE030E040E050E00E94A135605D6033AE
:1050D00031F0C114D104E104F10409F460E36093F8
:1050E000F4025AE0852E912CA12CB12CC701B601F7
:1050F000A50194010E94A13560E321153105410508
:10510000510539F0CA01B901A50194010E94A135E8
:10511000605D6093F302C701B60124E630E040E031
:1051200050E00E94A135211531054105510509F4D2
:105130005FC0205D2093F202C2EFD2E00990002010
:10514000E9F7219702EF12E060E00C171D0708F461
:1051500051C08DEC97E10E941C1B0E94AD0F81FF96
:105160004FC082EB97E160E00E941C1B60E080EC86
:1051700097E10E941C1B809100030E94931360E042
:10518000813009F440C0823009F040C084EA97E1E0
:105190000E941C1B8091960390919703892B09F420
:1051A0004CC180912A03882309F447C180912203CE
:1051B000811143C10E94891B20919603309197036E
:1051C0002115310509F439C180E041E050E0C82FD4
:1051D000D0E07A01082E02C0EE0CFF1C0A94E2F720
:1051E000B70162237323672B09F095C08F5FEFCF60
:1051F00020E3A0CFD8018D918D010E948A1AA4CFFF
:105200008BEA97E1B0CF8DE997E1C2CF85E997E1CD
:10521000BFCF8091F7028823A9F10E94891B40919A
:10522000FC025091FD026091FE027091FF022FB7C7
:10523000F89480913E0390913F03A0914003B09178
:1052400041032FBF841B950BA60BB70B893C91051F
:10525000A105B10560F00E94F90E6093FC02709305
:10526000FD028093FE029093FF020E94A6130E940B
:10527000F90E6093F8027093F9028093FA0290930A
:10528000FB0288CF4091F8025091F9026091FA0236
:105290007091FB022FB7F89480913E0390913F03E9
:1052A000A0914003B09141032FBF841B950BA60B27
:1052B000B70B813C9742A940B10518F00E946E1BC4
:1052C00069CF4091FC025091FD026091FE02709105
:1052D000FF022FB7F89480913E0390913F03A09175
:1052E0004003B09141032FBF841B950BA60BB70B56
:1052F000893C9105A105B10508F44CCF0E94F90E37
:105300006093FC027093FD028093FE029093FF0273
:105310000E94A6133FCF9091210390FFACC0880F4D
:10532000880F880F80934F0110925201895F8093FC
:10533000500183E08093530124E630E047E050E0E1
:105340006DE471E088E70E944A32892B09F075C04C
:10535000AE0195E0440F551F9A95E1F78091210326
:1053600080FF9BC0E1E0F3E080E2DF011D928A95BF
:10537000E9F7A1EBB1E08DEA682E81E0782E882470
:1053800083942D91E30169913E01640F752F711D86
:1053900068567C4F30E02F5F3C4FF90197E08F015A
:1053A000021B130B982C01C0990C0A95EAF76B01AC
:1053B000B12CE60189916E018921192F1B191770F3
:1053C000A12E012F110F110BD82F01C0DD0FAA94B0
:1053D000EAF7AD2E1195019511090770112701C04B
:1053E00086950A95EAF71D2F182B8081812B8083E3
:1053F000B39488E0B812DDCF915031969F3F79F693
:10540000C1E0A53BBC0709F0BCCF04E610E020E2F8
:1054100030E041E053E060E488E70E94D432892B19
:1054200061F4E094F0948091960390919703E822C0
:10543000F922F0929703E092960380912703882344
:10544000A9F00E94F90E00912303109124032091EA
:10545000250330912603601B710B820B930B6F3F6A
:105460007F4F8F4F9F4710F40E946E1BCDB7DEB762
:10547000EEE00C940F358295880F807680934F0173
:105480009E01369527953695279520935201815E8A
:1054900080935001209353014FCF48565C4F04E650
:1054A00010E020E230E0B7CFAFE0B0E0EAE5FAE2AA
:1054B0000C94F2348E010F5F1F4F8AE0F8011192B5
:1054C0008A95E9F782E9E82E81E0F82E680197E9EC
:1054D000692E91E0792EAA24A394B12C3DE9832E64
:1054E00031E0932EF70181917F018F3F09F440C095
:1054F000F894E82FE295EF70F0E021A18F70A501FC
:1055000002C0440F551F8A95E2F7CA01922F982BCB
:1055100091A392A18095892382A3789400C0E7E9A2
:10552000F1E0512C31E021912F3F09F4A4C0A22FCA
:10553000A295AF70B0E090968C9190E02F7002C071
:10554000959587952A95E2F780FD95C0832F582A77
:10555000330F8E169F0639F7F701319780818F3F01
:1055600011F00E943E1050EA5A95F1F7F601508270
:10557000FFEFCF1ADF0A6E147F0409F0B3CF4AE0C1
:1055800050E0B80184E892E00E941136009741F0A3
:105590002AE0F801A4E8B2E001900D922A95E1F723
:1055A00000918F0210E00F511D4F892B09F465C047
:1055B00081E0809344020E940F1F909343028093E6
:1055C0004202D12CC0903303CC2009F4AFC07E013D
:1055D0002BE0E20EF11C85E0F70111928A95E9F7C4
:1055E00080917F028A3008F06CC042E85DE1B7012B
:1055F000C8010E943614882309F485C04CE85CE198
:10560000B701C8010E943614882309F47CC045E321
:105610005DE1B701C8010E943614882309F473C004
:1056200048EC5BE1B701C8010E943614882309F4F5
:105630006AC04FE65CE1B701C8010E9436148823B6
:1056400009F461C010927F0280918E0290E045E0E3
:1056500050E0B7018F519D4F0E94113621E02093F9
:105660004B02892B09F042C0C12C8C2D8D292F961D
:10567000EFE00C940E3580E06ACFD0904402DD203C
:1056800009F49FCF80914202909143020E94001F33
:10569000059708F496CF45E050E064E872E0C80151
:1056A0000E941136892B59F085E0E4E8F2E0D80138
:1056B00001900D928A95E1F71092440283CFD12C8C
:1056C000FBCF80914502909146020E94001F843FCB
:1056D000914008F08ACF80914B02882329F285E01F
:1056E000F70111928A95E9F710924B02A0918E0270
:1056F000B0E0AF51BD4F85E0FE013B9601900D92A9
:105700008A95E1F7B2CF80917F028F3F19F08F5FCA
:1057100080937F0280917F028A3008F495CF0E94A7
:105720000F1F9093460280934502D5CFE0908E02E2
:10573000F12CA7014F515D4F7A0185E0F801AFE5EB
:10574000B2E001900D928A95E1F765E070E08FE597
:1057500092E00E94BE0F80935E0285E0E4E6F2E0F4
:10576000D70101900D928A95E1F788E0EBE2F3E032
:10577000AAE6B2E001900D928A95E1F768E070E048
:105780008AE692E00E94BE0F8093690280907202C6
:1057900090907302A0907402B090750280914702BD
:1057A00090914802A0914902B0914A028816990648
:1057B000AA06BB06B1F08092470290924802A092DE
:1057C0004902B0924A020E94F90E861A970AA80A64
:1057D000B90A8092800290928102A0928202B092D5
:1057E0008302809176028093F7023FCFA6E0B0E07B
:1057F000ECEFFBE20C94FD340E940F1F8C018091B2
:105800004002909141028017910781F019821A821B
:105810000E940F1F682F49815A81792F80E090E004
:105820000E94212710934102009340022696E4E053
:105830000C9419351F920F920FB60F9211248F936B
:105840009F93AF93BF9380913D03811113C08091CB
:105850003E0390913F03A0914003B09141034196D4
:10586000A11DB11D80933E0390933F03A09340037D
:10587000B0934103BF91AF919F918F910F900FBE55
:105880000F901F901895A6E2B0E0E9E4FCE20C94BA
:10589000EF3485B7806885BF85B7806885BF84B7DA
:1058A000877F84BF0FB6F894A895809160008861C7
:1058B00080936000109260000FBE80E890E00FB609
:1058C000F89480936100909361000FBE88E390E1AB
:1058D0009093C5018093C4010E948B0D0E942A0EF3
:1058E0008091E20084608093E200789480914F037D
:1058F000882399F01091E9001F708091EC0080FFDF
:105900003AC180E8182B1092E9008091E80083FDED
:105910000E9407171F701093E90082E084BD93E096
:1059200095BD9AEF97BD80936E0010928002109201
:10593000810210928202109283020E9470158111DE
:1059400002C00E9460158091D80080618093D800C9
:105950002AE12A95F1F700C08091D900182F117023
:1059600080FD04C00E948B0D10924F0310933303EF
:10597000109334031093400111110E947833EBE22D
:10598000F3E088E0DF011D928A95E9F780914001FC
:1059900091E089278093DB02809140019093DE02A1
:1059A0008091400180914001811106C084EF809375
:1059B000540185EF8093550160E080E00E94F00F74
:1059C00061E080E00E94F00FEFE8F1E03197F1F73D
:1059D00000C0000010E08091DE02181708F4CDC06E
:1059E000809140018091400190E0811101C095E0DB
:1059F00090938F0285E0891B80938E0202E911E06B
:105A0000D8018D918D018F3F11F00E943E10B1E0C1
:105A100007391B07A9F707E911E0F80181918F0108
:105A20008F3F11F00E943E10F1E00D391F07A9F7DA
:105A30008AE0E1EEF2E0DF01282F1D922A95E9F7D6
:105A4000E4E8F2E0DF011D928A95E9F790E080E05A
:105A50000E943735853E9E4F21F40E9470158111BA
:105A600063C065EE7EEF90E080E00E946B3560E001
:105A700082E090E00E944D3581E08093900261E0E9
:105A800083E090E00E944D3560E074E184E090E0B6
:105A90000E946B3560E086E090E00E944D3560E04A
:105AA00087E090E00E944D3540E050E0BA0188E088
:105AB00090E00E945F3560E083E290E00E944D3507
:105AC00060E08CE090E00E944D3560E08DE090E079
:105AD0000E944D3519821A821B821C821D821E82F1
